{
  "contractName": "MUBCItemShop",
  "abi": [
    {
      "anonymous": false,
      "inputs": [
        {
          "indexed": false,
          "internalType": "bool",
          "name": "state",
          "type": "bool"
        },
        {
          "indexed": false,
          "internalType": "uint256",
          "name": "by",
          "type": "uint256"
        }
      ],
      "name": "BreakerFlipped",
      "type": "event"
    },
    {
      "anonymous": false,
      "inputs": [
        {
          "indexed": false,
          "internalType": "uint256",
          "name": "value",
          "type": "uint256"
        },
        {
          "indexed": false,
          "internalType": "uint256",
          "name": "uuid",
          "type": "uint256"
        },
        {
          "indexed": false,
          "internalType": "uint256",
          "name": "by",
          "type": "uint256"
        }
      ],
      "name": "IncentiveMinted",
      "type": "event"
    },
    {
      "anonymous": false,
      "inputs": [
        {
          "indexed": false,
          "internalType": "uint256",
          "name": "itemID",
          "type": "uint256"
        }
      ],
      "name": "ItemDelisted",
      "type": "event"
    },
    {
      "anonymous": false,
      "inputs": [
        {
          "indexed": false,
          "internalType": "uint256",
          "name": "itemID",
          "type": "uint256"
        }
      ],
      "name": "ItemListed",
      "type": "event"
    },
    {
      "anonymous": false,
      "inputs": [
        {
          "indexed": false,
          "internalType": "uint256",
          "name": "itemID",
          "type": "uint256"
        },
        {
          "indexed": false,
          "internalType": "uint256",
          "name": "uuid",
          "type": "uint256"
        }
      ],
      "name": "ItemPurchased",
      "type": "event"
    },
    {
      "anonymous": false,
      "inputs": [
        {
          "indexed": false,
          "internalType": "uint256",
          "name": "uuid",
          "type": "uint256"
        }
      ],
      "name": "UserRegistered",
      "type": "event"
    },
    {
      "inputs": [
        {
          "internalType": "uint256",
          "name": "",
          "type": "uint256"
        }
      ],
      "name": "activeItems",
      "outputs": [
        {
          "internalType": "uint256",
          "name": "",
          "type": "uint256"
        }
      ],
      "stateMutability": "view",
      "type": "function",
      "constant": true
    },
    {
      "inputs": [],
      "name": "activeSerial",
      "outputs": [
        {
          "internalType": "uint256",
          "name": "",
          "type": "uint256"
        }
      ],
      "stateMutability": "view",
      "type": "function",
      "constant": true
    },
    {
      "inputs": [],
      "name": "circuitBroken",
      "outputs": [
        {
          "internalType": "bool",
          "name": "",
          "type": "bool"
        }
      ],
      "stateMutability": "view",
      "type": "function",
      "constant": true
    },
    {
      "inputs": [],
      "name": "cron",
      "outputs": [
        {
          "internalType": "address",
          "name": "",
          "type": "address"
        }
      ],
      "stateMutability": "view",
      "type": "function",
      "constant": true
    },
    {
      "inputs": [
        {
          "internalType": "uint256",
          "name": "",
          "type": "uint256"
        }
      ],
      "name": "executive",
      "outputs": [
        {
          "internalType": "bool",
          "name": "",
          "type": "bool"
        }
      ],
      "stateMutability": "view",
      "type": "function",
      "constant": true
    },
    {
      "inputs": [
        {
          "internalType": "uint256",
          "name": "_as",
          "type": "uint256"
        }
      ],
      "name": "flipBreaker",
      "outputs": [
        {
          "internalType": "bool",
          "name": "_state",
          "type": "bool"
        }
      ],
      "stateMutability": "nonpayable",
      "type": "function"
    },
    {
      "inputs": [
        {
          "internalType": "uint256",
          "name": "_uuid",
          "type": "uint256"
        }
      ],
      "name": "getBalance",
      "outputs": [
        {
          "internalType": "uint256",
          "name": "_balance",
          "type": "uint256"
        }
      ],
      "stateMutability": "view",
      "type": "function",
      "constant": true
    },
    {
      "inputs": [
        {
          "internalType": "uint256",
          "name": "",
          "type": "uint256"
        }
      ],
      "name": "itemRegistry",
      "outputs": [
        {
          "internalType": "uint256",
          "name": "itemID",
          "type": "uint256"
        },
        {
          "internalType": "string",
          "name": "description",
          "type": "string"
        },
        {
          "internalType": "bool",
          "name": "fungible",
          "type": "bool"
        },
        {
          "internalType": "uint256",
          "name": "quantity",
          "type": "uint256"
        },
        {
          "internalType": "uint256",
          "name": "cost",
          "type": "uint256"
        },
        {
          "internalType": "bool",
          "name": "active",
          "type": "bool"
        },
        {
          "internalType": "uint256",
          "name": "activeIndex",
          "type": "uint256"
        }
      ],
      "stateMutability": "view",
      "type": "function",
      "constant": true
    },
    {
      "inputs": [],
      "name": "itemSerial",
      "outputs": [
        {
          "internalType": "uint256",
          "name": "",
          "type": "uint256"
        }
      ],
      "stateMutability": "view",
      "type": "function",
      "constant": true
    },
    {
      "inputs": [
        {
          "internalType": "uint256",
          "name": "_uuid",
          "type": "uint256"
        },
        {
          "internalType": "uint256",
          "name": "_value",
          "type": "uint256"
        },
        {
          "internalType": "uint256",
          "name": "_as",
          "type": "uint256"
        }
      ],
      "name": "mint",
      "outputs": [],
      "stateMutability": "nonpayable",
      "type": "function"
    },
    {
      "inputs": [
        {
          "internalType": "uint256",
          "name": "_uuid",
          "type": "uint256"
        }
      ],
      "name": "profile",
      "outputs": [
        {
          "internalType": "string",
          "name": "_uniqueID",
          "type": "string"
        },
        {
          "internalType": "string",
          "name": "_name",
          "type": "string"
        },
        {
          "internalType": "uint256",
          "name": "_balance",
          "type": "uint256"
        },
        {
          "internalType": "uint256[]",
          "name": "_purchases",
          "type": "uint256[]"
        },
        {
          "internalType": "uint256[]",
          "name": "_awards",
          "type": "uint256[]"
        }
      ],
      "stateMutability": "view",
      "type": "function",
      "constant": true
    },
    {
      "inputs": [
        {
          "internalType": "string",
          "name": "_uniqueID",
          "type": "string"
        },
        {
          "internalType": "string",
          "name": "_name",
          "type": "string"
        },
        {
          "internalType": "bool",
          "name": "_executive",
          "type": "bool"
        }
      ],
      "name": "register",
      "outputs": [
        {
          "internalType": "uint256",
          "name": "_uuid",
          "type": "uint256"
        }
      ],
      "stateMutability": "nonpayable",
      "type": "function"
    },
    {
      "inputs": [],
      "name": "tokenSupply",
      "outputs": [
        {
          "internalType": "uint256",
          "name": "",
          "type": "uint256"
        }
      ],
      "stateMutability": "view",
      "type": "function",
      "constant": true
    },
    {
      "inputs": [
        {
          "internalType": "uint256",
          "name": "",
          "type": "uint256"
        }
      ],
      "name": "userRegistry",
      "outputs": [
        {
          "internalType": "string",
          "name": "uniqueID",
          "type": "string"
        },
        {
          "internalType": "string",
          "name": "name",
          "type": "string"
        },
        {
          "internalType": "uint256",
          "name": "uuid",
          "type": "uint256"
        },
        {
          "internalType": "uint256",
          "name": "balance",
          "type": "uint256"
        }
      ],
      "stateMutability": "view",
      "type": "function",
      "constant": true
    },
    {
      "inputs": [
        {
          "internalType": "string",
          "name": "",
          "type": "string"
        }
      ],
      "name": "uuid",
      "outputs": [
        {
          "internalType": "uint256",
          "name": "",
          "type": "uint256"
        }
      ],
      "stateMutability": "view",
      "type": "function",
      "constant": true
    },
    {
      "inputs": [],
      "name": "uuidSerial",
      "outputs": [
        {
          "internalType": "uint256",
          "name": "",
          "type": "uint256"
        }
      ],
      "stateMutability": "view",
      "type": "function",
      "constant": true
    },
    {
      "inputs": [
        {
          "internalType": "string",
          "name": "_description",
          "type": "string"
        },
        {
          "internalType": "bool",
          "name": "_fungible",
          "type": "bool"
        },
        {
          "internalType": "uint256",
          "name": "_quantity",
          "type": "uint256"
        },
        {
          "internalType": "uint256",
          "name": "_cost",
          "type": "uint256"
        }
      ],
      "name": "listItem",
      "outputs": [
        {
          "internalType": "uint256",
          "name": "_itemID",
          "type": "uint256"
        }
      ],
      "stateMutability": "nonpayable",
      "type": "function"
    },
    {
      "inputs": [
        {
          "internalType": "uint256",
          "name": "_itemID",
          "type": "uint256"
        }
      ],
      "name": "delistItem",
      "outputs": [],
      "stateMutability": "nonpayable",
      "type": "function"
    },
    {
      "inputs": [
        {
          "internalType": "uint256",
          "name": "_itemID",
          "type": "uint256"
        },
        {
          "internalType": "uint256",
          "name": "_as",
          "type": "uint256"
        }
      ],
      "name": "purchaseItem",
      "outputs": [],
      "stateMutability": "nonpayable",
      "type": "function"
    },
    {
      "inputs": [],
      "name": "getActiveItems",
      "outputs": [
        {
          "internalType": "uint256[]",
          "name": "_itemIDs",
          "type": "uint256[]"
        }
      ],
      "stateMutability": "view",
      "type": "function",
      "constant": true
    },
    {
      "inputs": [
        {
          "internalType": "uint256",
          "name": "_id",
          "type": "uint256"
        }
      ],
      "name": "itemProfile",
      "outputs": [
        {
          "internalType": "string",
          "name": "_description",
          "type": "string"
        },
        {
          "internalType": "bool",
          "name": "_fungible",
          "type": "bool"
        },
        {
          "internalType": "uint256",
          "name": "_quantity",
          "type": "uint256"
        },
        {
          "internalType": "uint256",
          "name": "_cost",
          "type": "uint256"
        },
        {
          "internalType": "bool",
          "name": "_active",
          "type": "bool"
        },
        {
          "internalType": "uint256[]",
          "name": "_purchasers",
          "type": "uint256[]"
        }
      ],
      "stateMutability": "view",
      "type": "function",
      "constant": true
    }
  ],
  "bytecode": "0x608060405233600560016101000a81548173ffffffffffffffffffffffffffffffffffffffff021916908373ffffffffffffffffffffffffffffffffffffffff160217905550612c6f806100546000396000f3fe608060405234801561001057600080fd5b50600436106101375760003560e01c806391f6611d116100b8578063cb78a5ad1161007c578063cb78a5ad1461039c578063d7fc1b9b146103ba578063da09b509146103ea578063e06756981461041a578063e8f4593914610436578063f1dc75d21461046657610137565b806391f6611d146102cd5780639c318c7b146102eb5780639ca785921461031b578063b90dc8ff1461034b578063bddaef9c1461036957610137565b806372cd2b1a116100ff57806372cd2b1a1461020f57806376280a62146102435780637824407f146102615780637db646871461027f5780638bade2a11461029d57610137565b806302acc94b1461013c57806310061631146101585780631e010439146101745780632e816a2d146101a45780636c68ad25146101d9575b600080fd5b61015660048036036101519190810190611fca565b610484565b005b610172600480360361016d9190810190611f65565b610768565b005b61018e60048036036101899190810190611f65565b610942565b60405161019b919061298f565b60405180910390f35b6101be60048036036101b99190810190611f65565b610962565b6040516101d0969594939291906126be565b60405180910390f35b6101f360048036036101ee9190810190611f65565b610b6f565b60405161020697969594939291906129aa565b60405180910390f35b61022960048036036102249190810190611f65565b610c63565b60405161023a95949392919061272d565b60405180910390f35b61024b610fc1565b6040516102589190612658565b60405180910390f35b610269610fd4565b604051610276919061298f565b60405180910390f35b610287610fda565b604051610294919061298f565b60405180910390f35b6102b760048036036102b29190810190611f65565b610fe0565b6040516102c49190612658565b60405180910390f35b6102d5611168565b6040516102e29190612636565b60405180910390f35b61030560048036036103009190810190611f65565b611203565b604051610312919061298f565b60405180910390f35b61033560048036036103309190810190611f65565b61121b565b6040516103429190612658565b60405180910390f35b61035361123b565b604051610360919061261b565b60405180910390f35b610383600480360361037e9190810190611f65565b611261565b604051610393949392919061279c565b60405180910390f35b6103a46113c1565b6040516103b1919061298f565b60405180910390f35b6103d460048036036103cf9190810190611ee6565b6113c7565b6040516103e1919061298f565b60405180910390f35b61040460048036036103ff9190810190611e6b565b611608565b604051610411919061298f565b60405180910390f35b610434600480360361042f9190810190611f8e565b6117c8565b005b610450600480360361044b9190810190611e2a565b611b06565b60405161045d919061298f565b60405180910390f35b61046e611b34565b60405161047b919061298f565b60405180910390f35b600560019054906101000a900473ffffffffffffffffffffffffffffffffffffffff1673ffffffffffffffffffffffffffffffffffffffff163373ffffffffffffffffffffffffffffffffffffffff1614610514576040517f08c379a000000000000000000000000000000000000000000000000000000000815260040161050b9061284f565b60405180910390fd5b600560009054906101000a900460ff1615610564576040517f08c379a000000000000000000000000000000000000000000000000000000000815260040161055b9061296f565b60405180910390fd5b806002600082815260200190815260200160002060009054906101000a900460ff16806105915750600081145b6105d0576040517f08c379a00000000000000000000000000000000000000000000000000000000081526004016105c79061286f565b60405180910390fd5b6060600160008681526020019081526020016000206001018054600181600116156101000203166002900480601f01602080910402602001604051908101604052809291908181526020018280546001816001161561010002031660029004801561067c5780601f106106515761010080835404028352916020019161067c565b820191906000526020600020905b81548152906001019060200180831161065f57829003601f168201915b505050505090506000815114156106c8576040517f08c379a00000000000000000000000000000000000000000000000000000000081526004016106bf9061294f565b60405180910390fd5b6106f1846001600088815260200190815260200160002060030154611b3a90919063ffffffff16565b600160008781526020019081526020016000206003018190555061072084600354611b3a90919063ffffffff16565b6003819055507f4f14f3010e17c24bf677859752cf2ddf3823e1d134b52a156deaffb4ba3630dc84868560405161075993929190612a49565b60405180910390a15050505050565b600560019054906101000a900473ffffffffffffffffffffffffffffffffffffffff1673ffffffffffffffffffffffffffffffffffffffff163373ffffffffffffffffffffffffffffffffffffffff16146107f8576040517f08c379a00000000000000000000000000000000000000000000000000000000081526004016107ef9061284f565b60405180910390fd5b60006006600083815260200190815260200160002090508060050160009054906101000a900460ff16610860576040517f08c379a0000000000000000000000000000000000000000000000000000000008152600401610857906128cf565b60405180910390fd5b6000600660006009548152602001908152602001600020905060008260050160006101000a81548160ff021916908315150217905550816006015481600601819055506000826006018190555080600001546007600083600601548152602001908152602001600020819055506000600760006009548152602001908152602001600020819055506108fe6001600954611b8f90919063ffffffff16565b6009819055507fa4b62d701729d2038b6683e9584f5ea4479ea94a225c6e81b838699093b9ca20600854604051610935919061298f565b60405180910390a1505050565b600060016000838152602001908152602001600020600301549050919050565b60606000806000806060610974611c34565b600660008981526020019081526020016000206040518061010001604052908160008201548152602001600182018054600181600116156101000203166002900480601f016020809104026020016040519081016040528092919081815260200182805460018160011615610100020316600290048015610a365780601f10610a0b57610100808354040283529160200191610a36565b820191906000526020600020905b815481529060010190602001808311610a1957829003601f168201915b505050505081526020016002820160009054906101000a900460ff1615151515815260200160038201548152602001600482015481526020016005820160009054906101000a900460ff161515151581526020016006820154815260200160088201805480602002602001604051908101604052809291908181526020018280548015610ae257602002820191906000526020600020905b815481526020019060010190808311610ace575b50505050508152505090506060816020015190506000815111610b3a576040517f08c379a0000000000000000000000000000000000000000000000000000000008152600401610b31906128af565b60405180910390fd5b816020015197508160400151965081606001519550816080015194508160a0015193508160e001519250505091939550919395565b6006602052806000526040600020600091509050806000015490806001018054600181600116156101000203166002900480601f016020809104026020016040519081016040528092919081815260200182805460018160011615610100020316600290048015610c215780601f10610bf657610100808354040283529160200191610c21565b820191906000526020600020905b815481529060010190602001808311610c0457829003601f168201915b5050505050908060020160009054906101000a900460ff16908060030154908060040154908060050160009054906101000a900460ff16908060060154905087565b60608060006060806060600160008881526020019081526020016000206001018054600181600116156101000203166002900480601f016020809104026020016040519081016040528092919081815260200182805460018160011615610100020316600290048015610d175780601f10610cec57610100808354040283529160200191610d17565b820191906000526020600020905b815481529060010190602001808311610cfa57829003601f168201915b50505050509050600081511415610d63576040517f08c379a0000000000000000000000000000000000000000000000000000000008152600401610d5a9061288f565b60405180910390fd5b610d6b611c7d565b600160008981526020019081526020016000206040518060c0016040529081600082018054600181600116156101000203166002900480601f016020809104026020016040519081016040528092919081815260200182805460018160011615610100020316600290048015610e225780601f10610df757610100808354040283529160200191610e22565b820191906000526020600020905b815481529060010190602001808311610e0557829003601f168201915b50505050508152602001600182018054600181600116156101000203166002900480601f016020809104026020016040519081016040528092919081815260200182805460018160011615610100020316600290048015610ec45780601f10610e9957610100808354040283529160200191610ec4565b820191906000526020600020905b815481529060010190602001808311610ea757829003601f168201915b50505050508152602001600282015481526020016003820154815260200160048201805480602002602001604051908101604052809291908181526020018280548015610f3057602002820191906000526020600020905b815481526020019060010190808311610f1c575b5050505050815260200160058201805480602002602001604051908101604052809291908181526020018280548015610f8857602002820191906000526020600020905b815481526020019060010190808311610f74575b5050505050815250509050806000015196508060200151955080606001519450806080015193508060a001519250505091939590929450565b600560009054906101000a900460ff1681565b60035481565b60095481565b6000600560019054906101000a900473ffffffffffffffffffffffffffffffffffffffff1673ffffffffffffffffffffffffffffffffffffffff163373ffffffffffffffffffffffffffffffffffffffff1614611072576040517f08c379a00000000000000000000000000000000000000000000000000000000081526004016110699061284f565b60405180910390fd5b816002600082815260200190815260200160002060009054906101000a900460ff168061109f5750600081145b6110de576040517f08c379a00000000000000000000000000000000000000000000000000000000081526004016110d59061286f565b60405180910390fd5b600560009054906101000a900460ff1615600560006101000a81548160ff0219169083151502179055507f460168ef1a21edd6e0179abc43d3d43630cd738d60e60cf485890096aeb34544600560009054906101000a900460ff1684604051611148929190612673565b60405180910390a1600560009054906101000a900460ff16915050919050565b60608060095460405190808252806020026020018201604052801561119c5781602001602082028038833980820191505090505b50905060008090505b6009548110156111fb57600760006111c7600184611b3a90919063ffffffff16565b8152602001908152602001600020548282815181106111e257fe5b60200260200101818152505080806001019150506111a5565b508091505090565b60076020528060005260406000206000915090505481565b60026020528060005260406000206000915054906101000a900460ff1681565b600560019054906101000a900473ffffffffffffffffffffffffffffffffffffffff1681565b6001602052806000526040600020600091509050806000018054600181600116156101000203166002900480601f01602080910402602001604051908101604052809291908181526020018280546001816001161561010002031660029004801561130d5780601f106112e25761010080835404028352916020019161130d565b820191906000526020600020905b8154815290600101906020018083116112f057829003601f168201915b505050505090806001018054600181600116156101000203166002900480601f0160208091040260200160405190810160405280929190818152602001828054600181600116156101000203166002900480156113ab5780601f10611380576101008083540402835291602001916113ab565b820191906000526020600020905b81548152906001019060200180831161138e57829003601f168201915b5050505050908060020154908060030154905084565b60045481565b6000600560019054906101000a900473ffffffffffffffffffffffffffffffffffffffff1673ffffffffffffffffffffffffffffffffffffffff163373ffffffffffffffffffffffffffffffffffffffff1614611459576040517f08c379a00000000000000000000000000000000000000000000000000000000081526004016114509061284f565b60405180910390fd5b600560009054906101000a900460ff16156114a9576040517f08c379a00000000000000000000000000000000000000000000000000000000081526004016114a09061296f565b60405180910390fd5b600080856040516114ba9190612604565b90815260200160405180910390205414611509576040517f08c379a00000000000000000000000000000000000000000000000000000000081526004016115009061290f565b60405180910390fd5b61151f6001600454611b3a90919063ffffffff16565b6004819055506000600160006004548152602001908152602001600020905084816000019080519060200190611556929190611cb3565b508381600101908051906020019061156f929190611cb3565b508260026000600454815260200190815260200160002060006101000a81548160ff0219169083151502179055506004546000866040516115b09190612604565b9081526020016040518091039020819055507f6b1da47e6cb6a4952c75fff4300f06caf20aa8269a4a398f315562926c5bed396004546040516115f3919061298f565b60405180910390a16004549150509392505050565b6000600560019054906101000a900473ffffffffffffffffffffffffffffffffffffffff1673ffffffffffffffffffffffffffffffffffffffff163373ffffffffffffffffffffffffffffffffffffffff161461169a576040517f08c379a00000000000000000000000000000000000000000000000000000000081526004016116919061284f565b60405180910390fd5b6116b06001600854611b3a90919063ffffffff16565b600881905550600060066000600854815260200190815260200160002090506008548160000181905550858160010190805190602001906116f2929190611cb3565b50848160020160006101000a81548160ff02191690831515021790555083816003018190555082816004018190555060018160050160006101000a81548160ff0219169083151502179055506117546001600954611b3a90919063ffffffff16565b6009819055506008546007600060095481526020019081526020016000208190555060095481600601819055507f77ff2ef08febd9f3c5e2bd5b310fa7ce50bfa6627428012ffc5ff4fd2b9894636008546040516117b2919061298f565b60405180910390a1600854915050949350505050565b600560019054906101000a900473ffffffffffffffffffffffffffffffffffffffff1673ffffffffffffffffffffffffffffffffffffffff163373ffffffffffffffffffffffffffffffffffffffff1614611858576040517f08c379a000000000000000000000000000000000000000000000000000000000815260040161184f9061284f565b60405180910390fd5b60006006600084815260200190815260200160002090508060050160009054906101000a900460ff166118c0576040517f08c379a00000000000000000000000000000000000000000000000000000000081526004016118b7906127ef565b60405180910390fd5b6000816003015411806118e157508060020160009054906101000a900460ff165b611920576040517f08c379a0000000000000000000000000000000000000000000000000000000008152600401611917906128ef565b60405180910390fd5b806004015461192e83610942565b101561196f576040517f08c379a00000000000000000000000000000000000000000000000000000000081526004016119669061292f565b60405180910390fd5b80600701600083815260200190815260200160002060009054906101000a900460ff16156119d2576040517f08c379a00000000000000000000000000000000000000000000000000000000081526004016119c99061280f565b60405180910390fd5b8060020160009054906101000a900460ff16611a0957611a0060018260030154611b8f90919063ffffffff16565b81600301819055505b600060016000848152602001908152602001600020905080600401849080600181540180825580915050600190039060005260206000200160009091909190915055600182600701600085815260200190815260200160002060006101000a81548160ff02191690831515021790555081600801839080600181540180825580915050600190039060005260206000200160009091909190915055611abf82600401548260030154611b8f90919063ffffffff16565b81600301819055507f82979ce06c1fcf7a090707d8fc7123bfa6b69ba161402b0d6c52e052bd97d04b8484604051611af8929190612a20565b60405180910390a150505050565b6000818051602081018201805184825260208301602085012081835280955050505050506000915090505481565b60085481565b600080828401905083811015611b85576040517f08c379a0000000000000000000000000000000000000000000000000000000008152600401611b7c9061282f565b60405180910390fd5b8091505092915050565b6000611bd183836040518060400160405280601e81526020017f536166654d6174683a207375627472616374696f6e206f766572666c6f770000815250611bd9565b905092915050565b6000838311158290611c21576040517f08c379a0000000000000000000000000000000000000000000000000000000008152600401611c18919061269c565b60405180910390fd5b5060008385039050809150509392505050565b6040518061010001604052806000815260200160608152602001600015158152602001600081526020016000815260200160001515815260200160008152602001606081525090565b6040518060c001604052806060815260200160608152602001600081526020016000815260200160608152602001606081525090565b828054600181600116156101000203166002900490600052602060002090601f016020900481019282601f10611cf457805160ff1916838001178555611d22565b82800160010185558215611d22579182015b82811115611d21578251825591602001919060010190611d06565b5b509050611d2f9190611d33565b5090565b611d5591905b80821115611d51576000816000905550600101611d39565b5090565b90565b600081359050611d6781612c0b565b92915050565b600082601f830112611d7e57600080fd5b8135611d91611d8c82612aad565b612a80565b91508082526020830160208301858383011115611dad57600080fd5b611db8838284612bb8565b50505092915050565b600082601f830112611dd257600080fd5b8135611de5611de082612ad9565b612a80565b91508082526020830160208301858383011115611e0157600080fd5b611e0c838284612bb8565b50505092915050565b600081359050611e2481612c22565b92915050565b600060208284031215611e3c57600080fd5b600082013567ffffffffffffffff811115611e5657600080fd5b611e6284828501611d6d565b91505092915050565b60008060008060808587031215611e8157600080fd5b600085013567ffffffffffffffff811115611e9b57600080fd5b611ea787828801611dc1565b9450506020611eb887828801611d58565b9350506040611ec987828801611e15565b9250506060611eda87828801611e15565b91505092959194509250565b600080600060608486031215611efb57600080fd5b600084013567ffffffffffffffff811115611f1557600080fd5b611f2186828701611dc1565b935050602084013567ffffffffffffffff811115611f3e57600080fd5b611f4a86828701611dc1565b9250506040611f5b86828701611d58565b9150509250925092565b600060208284031215611f7757600080fd5b6000611f8584828501611e15565b91505092915050565b60008060408385031215611fa157600080fd5b6000611faf85828601611e15565b9250506020611fc085828601611e15565b9150509250929050565b600080600060608486031215611fdf57600080fd5b6000611fed86828701611e15565b9350506020611ffe86828701611e15565b925050604061200f86828701611e15565b9150509250925092565b600061202583836125e6565b60208301905092915050565b61203a81612b70565b82525050565b600061204b82612b15565b6120558185612b43565b935061206083612b05565b8060005b838110156120915781516120788882612019565b975061208383612b36565b925050600181019050612064565b5085935050505092915050565b6120a781612b82565b82525050565b60006120b882612b2b565b6120c28185612b54565b93506120d2818560208601612bc7565b6120db81612bfa565b840191505092915050565b60006120f182612b2b565b6120fb8185612b65565b935061210b818560208601612bc7565b80840191505092915050565b600061212282612b20565b61212c8185612b54565b935061213c818560208601612bc7565b61214581612bfa565b840191505092915050565b600061215d601e83612b54565b91507f43616e6e6f7420707572636861736520696e616374697665206974656d2100006000830152602082019050919050565b600061219d602583612b54565b91507f557365722068617320616c72656164792070757263686173656420746869732060008301527f6974656d210000000000000000000000000000000000000000000000000000006020830152604082019050919050565b6000612203601b83612b54565b91507f536166654d6174683a206164646974696f6e206f766572666c6f7700000000006000830152602082019050919050565b6000612243602a83612b54565b91507f457865637574696e672061646472657373206973206e6f74207468652043524f60008301527f4e206164647265737321000000000000000000000000000000000000000000006020830152604082019050919050565b60006122a9602d83612b54565b91507f43616e6e6f7420657865637574653a2055736572206973206e6f74206120636c60008301527f75622045786563757469766521000000000000000000000000000000000000006020830152604082019050919050565b600061230f602b83612b54565b91507f43616e6e6f742070726f66696c65206163636f756e74207468617420646f657360008301527f206e6f74206578697374210000000000000000000000000000000000000000006020830152604082019050919050565b6000612375602183612b54565b91507f43616e6e6f74207175657279206e6f6e6578697374656e74206974656d20494460008301527f21000000000000000000000000000000000000000000000000000000000000006020830152604082019050919050565b60006123db602883612b54565b91507f4974656d2068617320616c7265616479206265656e2064656c69737465642f2060008301527f65787069726564210000000000000000000000000000000000000000000000006020830152604082019050919050565b6000612441601183612b54565b91507f4974656d20697320736f6c64206f7574210000000000000000000000000000006000830152602082019050919050565b6000612481601983612b54565b91507f5573657220697320616c726561647920656e726f6c6c656421000000000000006000830152602082019050919050565b60006124c1603583612b54565b91507f557365722068617320696e73756666696369656e74204d55424320546f6b656e60008301527f2062616c616e636520746f2070757263686173652100000000000000000000006020830152604082019050919050565b6000612527602183612b54565b91507f43616e6e6f74206d696e7420746f20756e75736564207575696420696e64657860008301527f21000000000000000000000000000000000000000000000000000000000000006020830152604082019050919050565b600061258d603783612b54565b91507f436f6e7472616374206973206e6f74206163746976653a20746865206369726360008301527f75697420627265616b657220697320666c6970706564210000000000000000006020830152604082019050919050565b6125ef81612bae565b82525050565b6125fe81612bae565b82525050565b600061261082846120e6565b915081905092915050565b60006020820190506126306000830184612031565b92915050565b600060208201905081810360008301526126508184612040565b905092915050565b600060208201905061266d600083018461209e565b92915050565b6000604082019050612688600083018561209e565b61269560208301846125f5565b9392505050565b600060208201905081810360008301526126b681846120ad565b905092915050565b600060c08201905081810360008301526126d881896120ad565b90506126e7602083018861209e565b6126f460408301876125f5565b61270160608301866125f5565b61270e608083018561209e565b81810360a08301526127208184612040565b9050979650505050505050565b600060a082019050818103600083015261274781886120ad565b9050818103602083015261275b81876120ad565b905061276a60408301866125f5565b818103606083015261277c8185612040565b905081810360808301526127908184612040565b90509695505050505050565b600060808201905081810360008301526127b68187612117565b905081810360208301526127ca8186612117565b90506127d960408301856125f5565b6127e660608301846125f5565b95945050505050565b6000602082019050818103600083015261280881612150565b9050919050565b6000602082019050818103600083015261282881612190565b9050919050565b60006020820190508181036000830152612848816121f6565b9050919050565b6000602082019050818103600083015261286881612236565b9050919050565b600060208201905081810360008301526128888161229c565b9050919050565b600060208201905081810360008301526128a881612302565b9050919050565b600060208201905081810360008301526128c881612368565b9050919050565b600060208201905081810360008301526128e8816123ce565b9050919050565b6000602082019050818103600083015261290881612434565b9050919050565b6000602082019050818103600083015261292881612474565b9050919050565b60006020820190508181036000830152612948816124b4565b9050919050565b600060208201905081810360008301526129688161251a565b9050919050565b6000602082019050818103600083015261298881612580565b9050919050565b60006020820190506129a460008301846125f5565b92915050565b600060e0820190506129bf600083018a6125f5565b81810360208301526129d18189612117565b90506129e0604083018861209e565b6129ed60608301876125f5565b6129fa60808301866125f5565b612a0760a083018561209e565b612a1460c08301846125f5565b98975050505050505050565b6000604082019050612a3560008301856125f5565b612a4260208301846125f5565b9392505050565b6000606082019050612a5e60008301866125f5565b612a6b60208301856125f5565b612a7860408301846125f5565b949350505050565b6000604051905081810181811067ffffffffffffffff82111715612aa357600080fd5b8060405250919050565b600067ffffffffffffffff821115612ac457600080fd5b601f19601f8301169050602081019050919050565b600067ffffffffffffffff821115612af057600080fd5b601f19601f8301169050602081019050919050565b6000819050602082019050919050565b600081519050919050565b600081519050919050565b600081519050919050565b6000602082019050919050565b600082825260208201905092915050565b600082825260208201905092915050565b600081905092915050565b6000612b7b82612b8e565b9050919050565b60008115159050919050565b600073ffffffffffffffffffffffffffffffffffffffff82169050919050565b6000819050919050565b82818337600083830152505050565b60005b83811015612be5578082015181840152602081019050612bca565b83811115612bf4576000848401525b50505050565b6000601f19601f8301169050919050565b612c1481612b82565b8114612c1f57600080fd5b50565b612c2b81612bae565b8114612c3657600080fd5b5056fea26469706673582212202e4e9c7f05f6d278573324c66c52dee630a69f81ae4d18939796693e213d97bc64736f6c63430006010033",
  "source": "pragma solidity >= 0.4.0 < 0.7.0;\npragma experimental ABIEncoderV2;\n\nimport './MUBCCore.sol';\nimport './IMUBCItemShop.sol';\n\ncontract MUBCItemShop is MUBCCore, IMUBCItemShop {\n\n    function listItem(\n        string memory _description,\n        bool _fungible,\n        uint _quantity,\n        uint _cost\n        ) public override onlyCron() returns (uint _itemID) {\n\n        itemSerial = itemSerial.add(1);\n        Item storage item = itemRegistry[itemSerial];\n        item.itemID = itemSerial;\n        item.description = _description;\n        item.fungible = _fungible;\n        item.quantity = _quantity;\n        item.cost = _cost;\n        item.active = true;\n        activeSerial = activeSerial.add(1);\n        activeItems[activeSerial] = itemSerial;\n        item.activeIndex = activeSerial;\n        emit ItemListed(itemSerial);\n        return itemSerial;\n    }\n\n    function delistItem(uint _itemID) public override onlyCron() {\n        Item storage delistedItem = itemRegistry[_itemID];\n        require(delistedItem.active, \"Item has already been delisted/ expired!\");\n        Item storage shiftedItem = itemRegistry[activeSerial];\n        delistedItem.active = false;\n        shiftedItem.activeIndex = delistedItem.activeIndex;\n        delistedItem.activeIndex = 0;\n        activeItems[shiftedItem.activeIndex] = shiftedItem.itemID;\n        activeItems[activeSerial] = 0;\n        activeSerial = activeSerial.sub(1);\n        emit ItemDelisted(itemSerial);\n    }\n\n    function purchaseItem(uint _itemID, uint _as) public override onlyCron() {\n        Item storage item = itemRegistry[_itemID];\n        require(item.active, \"Cannot purchase inactive item!\");\n        require(item.quantity > 0 || item.fungible, \"Item is sold out!\");\n        require(getBalance(_as) >= item.cost, \"User has insufficient MUBC Token balance to purchase!\");\n        require(!item.purchases[_as], \"User has already purchased this item!\");\n        if (!item.fungible)\n            item.quantity = item.quantity.sub(1);\n        User storage user = userRegistry[_as];\n        user.purchases.push(_itemID);\n        item.purchases[_as] = true;\n        item.purchasers.push(_as);\n        user.balance = user.balance.sub(item.cost);\n        emit ItemPurchased(_itemID, _as);\n    }\n\n    function getActiveItems() public override view returns (uint[] memory _itemIDs) {\n        uint[] memory arr = new uint[](activeSerial);\n        for (uint i = 0; i < activeSerial; i++)\n            arr[i] = activeItems[i.add(1)];\n        return arr;\n    }\n\n    function itemProfile(uint _id) public override view returns (\n        string memory _description,\n        bool _fungible,\n        uint _quantity,\n        uint _cost,\n        bool _active,\n        uint[] memory _purchasers\n        ) {\n\n        Item memory item = itemRegistry[_id];\n        bytes memory str = bytes(item.description);\n        require(str.length > 0, \"Cannot query nonexistent item ID!\");\n        _description = item.description;\n        _fungible = item.fungible;\n        _quantity = item.quantity;\n        _cost = item.cost;\n        _active = item.active;\n        _purchasers = item.purchasers;\n    }\n}",
  "sourcePath": "/home/gilcrejp/incentive-contracts/contracts/MUBCItemShop.sol",
  "compiler": {
    "name": "solc",
    "version": "0.6.1+commit.e6f7d5a4.Emscripten.clang"
  },
  "schemaVersion": "3.0.23",
  "updatedAt": "2020-02-28T22:39:26.316Z",
  "networkType": "ethereum",
  "devdoc": {
    "methods": {}
  },
  "userdoc": {
    "methods": {}
  }
}