{
  "contractName": "MUBCItems",
  "abi": [
    {
      "anonymous": false,
      "inputs": [
        {
          "indexed": false,
          "internalType": "bool",
          "name": "state",
          "type": "bool"
        },
        {
          "indexed": false,
          "internalType": "uint256",
          "name": "by",
          "type": "uint256"
        }
      ],
      "name": "BreakerFlipped",
      "type": "event"
    },
    {
      "anonymous": false,
      "inputs": [
        {
          "indexed": false,
          "internalType": "uint256",
          "name": "value",
          "type": "uint256"
        },
        {
          "indexed": false,
          "internalType": "uint256",
          "name": "uuid",
          "type": "uint256"
        },
        {
          "indexed": false,
          "internalType": "uint256",
          "name": "by",
          "type": "uint256"
        }
      ],
      "name": "IncentiveMinted",
      "type": "event"
    },
    {
      "anonymous": false,
      "inputs": [
        {
          "indexed": false,
          "internalType": "uint256",
          "name": "itemID",
          "type": "uint256"
        }
      ],
      "name": "ItemDelisted",
      "type": "event"
    },
    {
      "anonymous": false,
      "inputs": [
        {
          "indexed": false,
          "internalType": "uint256",
          "name": "itemID",
          "type": "uint256"
        }
      ],
      "name": "ItemListed",
      "type": "event"
    },
    {
      "anonymous": false,
      "inputs": [
        {
          "indexed": false,
          "internalType": "uint256",
          "name": "itemID",
          "type": "uint256"
        },
        {
          "indexed": false,
          "internalType": "uint256",
          "name": "uuid",
          "type": "uint256"
        }
      ],
      "name": "ItemPurchased",
      "type": "event"
    },
    {
      "anonymous": false,
      "inputs": [
        {
          "indexed": false,
          "internalType": "uint256",
          "name": "uuid",
          "type": "uint256"
        }
      ],
      "name": "UserRegistered",
      "type": "event"
    },
    {
      "inputs": [
        {
          "internalType": "uint256",
          "name": "",
          "type": "uint256"
        }
      ],
      "name": "activeItems",
      "outputs": [
        {
          "internalType": "uint256",
          "name": "",
          "type": "uint256"
        }
      ],
      "stateMutability": "view",
      "type": "function",
      "constant": true
    },
    {
      "inputs": [],
      "name": "activeSerial",
      "outputs": [
        {
          "internalType": "uint256",
          "name": "",
          "type": "uint256"
        }
      ],
      "stateMutability": "view",
      "type": "function",
      "constant": true
    },
    {
      "inputs": [],
      "name": "circuitBroken",
      "outputs": [
        {
          "internalType": "bool",
          "name": "",
          "type": "bool"
        }
      ],
      "stateMutability": "view",
      "type": "function",
      "constant": true
    },
    {
      "inputs": [],
      "name": "cron",
      "outputs": [
        {
          "internalType": "address",
          "name": "",
          "type": "address"
        }
      ],
      "stateMutability": "view",
      "type": "function",
      "constant": true
    },
    {
      "inputs": [
        {
          "internalType": "uint256",
          "name": "",
          "type": "uint256"
        }
      ],
      "name": "executive",
      "outputs": [
        {
          "internalType": "bool",
          "name": "",
          "type": "bool"
        }
      ],
      "stateMutability": "view",
      "type": "function",
      "constant": true
    },
    {
      "inputs": [
        {
          "internalType": "uint256",
          "name": "_as",
          "type": "uint256"
        }
      ],
      "name": "flipBreaker",
      "outputs": [
        {
          "internalType": "bool",
          "name": "_state",
          "type": "bool"
        }
      ],
      "stateMutability": "nonpayable",
      "type": "function"
    },
    {
      "inputs": [
        {
          "internalType": "uint256",
          "name": "_uuid",
          "type": "uint256"
        }
      ],
      "name": "getBalance",
      "outputs": [
        {
          "internalType": "uint256",
          "name": "_balance",
          "type": "uint256"
        }
      ],
      "stateMutability": "view",
      "type": "function",
      "constant": true
    },
    {
      "inputs": [
        {
          "internalType": "uint256",
          "name": "",
          "type": "uint256"
        }
      ],
      "name": "itemRegistry",
      "outputs": [
        {
          "internalType": "uint256",
          "name": "itemID",
          "type": "uint256"
        },
        {
          "internalType": "string",
          "name": "description",
          "type": "string"
        },
        {
          "internalType": "uint256",
          "name": "quantity",
          "type": "uint256"
        },
        {
          "internalType": "uint256",
          "name": "cost",
          "type": "uint256"
        },
        {
          "internalType": "bool",
          "name": "active",
          "type": "bool"
        },
        {
          "internalType": "uint256",
          "name": "activeIndex",
          "type": "uint256"
        }
      ],
      "stateMutability": "view",
      "type": "function",
      "constant": true
    },
    {
      "inputs": [],
      "name": "itemSerial",
      "outputs": [
        {
          "internalType": "uint256",
          "name": "",
          "type": "uint256"
        }
      ],
      "stateMutability": "view",
      "type": "function",
      "constant": true
    },
    {
      "inputs": [
        {
          "internalType": "uint256",
          "name": "_uuid",
          "type": "uint256"
        },
        {
          "internalType": "uint256",
          "name": "_value",
          "type": "uint256"
        },
        {
          "internalType": "uint256",
          "name": "_as",
          "type": "uint256"
        }
      ],
      "name": "mint",
      "outputs": [],
      "stateMutability": "nonpayable",
      "type": "function"
    },
    {
      "inputs": [
        {
          "internalType": "uint256",
          "name": "_uuid",
          "type": "uint256"
        }
      ],
      "name": "profile",
      "outputs": [
        {
          "internalType": "string",
          "name": "_uniqueID",
          "type": "string"
        },
        {
          "internalType": "string",
          "name": "_name",
          "type": "string"
        },
        {
          "internalType": "uint256",
          "name": "_balance",
          "type": "uint256"
        },
        {
          "internalType": "uint256[]",
          "name": "_purchases",
          "type": "uint256[]"
        },
        {
          "internalType": "uint256[]",
          "name": "_awards",
          "type": "uint256[]"
        }
      ],
      "stateMutability": "view",
      "type": "function",
      "constant": true
    },
    {
      "inputs": [
        {
          "internalType": "string",
          "name": "_uniqueID",
          "type": "string"
        },
        {
          "internalType": "string",
          "name": "_name",
          "type": "string"
        },
        {
          "internalType": "bool",
          "name": "_executive",
          "type": "bool"
        }
      ],
      "name": "register",
      "outputs": [
        {
          "internalType": "uint256",
          "name": "_uuid",
          "type": "uint256"
        }
      ],
      "stateMutability": "nonpayable",
      "type": "function"
    },
    {
      "inputs": [],
      "name": "tokenSupply",
      "outputs": [
        {
          "internalType": "uint256",
          "name": "",
          "type": "uint256"
        }
      ],
      "stateMutability": "view",
      "type": "function",
      "constant": true
    },
    {
      "inputs": [
        {
          "internalType": "uint256",
          "name": "",
          "type": "uint256"
        }
      ],
      "name": "userRegistry",
      "outputs": [
        {
          "internalType": "string",
          "name": "uniqueID",
          "type": "string"
        },
        {
          "internalType": "string",
          "name": "name",
          "type": "string"
        },
        {
          "internalType": "uint256",
          "name": "uuid",
          "type": "uint256"
        },
        {
          "internalType": "uint256",
          "name": "balance",
          "type": "uint256"
        }
      ],
      "stateMutability": "view",
      "type": "function",
      "constant": true
    },
    {
      "inputs": [
        {
          "internalType": "string",
          "name": "",
          "type": "string"
        }
      ],
      "name": "uuid",
      "outputs": [
        {
          "internalType": "uint256",
          "name": "",
          "type": "uint256"
        }
      ],
      "stateMutability": "view",
      "type": "function",
      "constant": true
    },
    {
      "inputs": [],
      "name": "uuidSerial",
      "outputs": [
        {
          "internalType": "uint256",
          "name": "",
          "type": "uint256"
        }
      ],
      "stateMutability": "view",
      "type": "function",
      "constant": true
    },
    {
      "inputs": [
        {
          "internalType": "string",
          "name": "_description",
          "type": "string"
        },
        {
          "internalType": "uint256",
          "name": "_quantity",
          "type": "uint256"
        },
        {
          "internalType": "uint256",
          "name": "_cost",
          "type": "uint256"
        }
      ],
      "name": "listItem",
      "outputs": [
        {
          "internalType": "uint256",
          "name": "_itemID",
          "type": "uint256"
        }
      ],
      "stateMutability": "nonpayable",
      "type": "function"
    },
    {
      "inputs": [
        {
          "internalType": "uint256",
          "name": "_itemID",
          "type": "uint256"
        }
      ],
      "name": "delistItem",
      "outputs": [],
      "stateMutability": "nonpayable",
      "type": "function"
    },
    {
      "inputs": [
        {
          "internalType": "uint256",
          "name": "_itemID",
          "type": "uint256"
        },
        {
          "internalType": "uint256",
          "name": "_as",
          "type": "uint256"
        }
      ],
      "name": "purchaseItem",
      "outputs": [],
      "stateMutability": "nonpayable",
      "type": "function"
    },
    {
      "inputs": [],
      "name": "getActiveItems",
      "outputs": [
        {
          "internalType": "uint256[]",
          "name": "_itemIDs",
          "type": "uint256[]"
        }
      ],
      "stateMutability": "view",
      "type": "function",
      "constant": true
    },
    {
      "inputs": [
        {
          "internalType": "uint256",
          "name": "_id",
          "type": "uint256"
        }
      ],
      "name": "itemProfile",
      "outputs": [
        {
          "internalType": "string",
          "name": "_description",
          "type": "string"
        },
        {
          "internalType": "uint256",
          "name": "_quantity",
          "type": "uint256"
        },
        {
          "internalType": "uint256",
          "name": "_cost",
          "type": "uint256"
        },
        {
          "internalType": "bool",
          "name": "_active",
          "type": "bool"
        },
        {
          "internalType": "uint256[]",
          "name": "_purchasers",
          "type": "uint256[]"
        }
      ],
      "stateMutability": "view",
      "type": "function",
      "constant": true
    }
  ],
  "bytecode": "0x608060405233600560016101000a81548173ffffffffffffffffffffffffffffffffffffffff021916908373ffffffffffffffffffffffffffffffffffffffff160217905550612baf806100546000396000f3fe608060405234801561001057600080fd5b50600436106101375760003560e01c806391f6611d116100b8578063cb78a5ad1161007c578063cb78a5ad1461039a578063d7fc1b9b146103b8578063e0675698146103e8578063e8f4593914610404578063f176627914610434578063f1dc75d21461046457610137565b806391f6611d146102cb5780639c318c7b146102e95780639ca7859214610319578063b90dc8ff14610349578063bddaef9c1461036757610137565b806372cd2b1a116100ff57806372cd2b1a1461020d57806376280a62146102415780637824407f1461025f5780637db646871461027d5780638bade2a11461029b57610137565b806302acc94b1461013c57806310061631146101585780631e010439146101745780632e816a2d146101a45780636c68ad25146101d8575b600080fd5b61015660048036036101519190810190611f26565b610482565b005b610172600480360361016d9190810190611ec1565b610766565b005b61018e60048036036101899190810190611ec1565b610940565b60405161019b91906128dd565b60405180910390f35b6101be60048036036101b99190810190611ec1565b610960565b6040516101cf959493929190612689565b60405180910390f35b6101f260048036036101ed9190810190611ec1565b610b49565b604051610204969594939291906128f8565b60405180910390f35b61022760048036036102229190810190611ec1565b610c2a565b60405161023895949392919061261a565b60405180910390f35b610249610f88565b60405161025691906125b4565b60405180910390f35b610267610f9b565b60405161027491906128dd565b60405180910390f35b610285610fa1565b60405161029291906128dd565b60405180910390f35b6102b560048036036102b09190810190611ec1565b610fa7565b6040516102c291906125b4565b60405180910390f35b6102d361112f565b6040516102e09190612592565b60405180910390f35b61030360048036036102fe9190810190611ec1565b6111ca565b60405161031091906128dd565b60405180910390f35b610333600480360361032e9190810190611ec1565b6111e2565b60405161034091906125b4565b60405180910390f35b610351611202565b60405161035e9190612577565b60405180910390f35b610381600480360361037c9190810190611ec1565b611228565b60405161039194939291906126ea565b60405180910390f35b6103a2611388565b6040516103af91906128dd565b60405180910390f35b6103d260048036036103cd9190810190611ddb565b61138e565b6040516103df91906128dd565b60405180910390f35b61040260048036036103fd9190810190611eea565b6115cf565b005b61041e60048036036104199190810190611d9a565b6118dd565b60405161042b91906128dd565b60405180910390f35b61044e60048036036104499190810190611e5a565b61190b565b60405161045b91906128dd565b60405180910390f35b61046c611aae565b60405161047991906128dd565b60405180910390f35b600560019054906101000a900473ffffffffffffffffffffffffffffffffffffffff1673ffffffffffffffffffffffffffffffffffffffff163373ffffffffffffffffffffffffffffffffffffffff1614610512576040517f08c379a00000000000000000000000000000000000000000000000000000000081526004016105099061279d565b60405180910390fd5b600560009054906101000a900460ff1615610562576040517f08c379a0000000000000000000000000000000000000000000000000000000008152600401610559906128bd565b60405180910390fd5b806002600082815260200190815260200160002060009054906101000a900460ff168061058f5750600081145b6105ce576040517f08c379a00000000000000000000000000000000000000000000000000000000081526004016105c5906127bd565b60405180910390fd5b6060600160008681526020019081526020016000206001018054600181600116156101000203166002900480601f01602080910402602001604051908101604052809291908181526020018280546001816001161561010002031660029004801561067a5780601f1061064f5761010080835404028352916020019161067a565b820191906000526020600020905b81548152906001019060200180831161065d57829003601f168201915b505050505090506000815114156106c6576040517f08c379a00000000000000000000000000000000000000000000000000000000081526004016106bd9061289d565b60405180910390fd5b6106ef846001600088815260200190815260200160002060030154611ab490919063ffffffff16565b600160008781526020019081526020016000206003018190555061071e84600354611ab490919063ffffffff16565b6003819055507f4f14f3010e17c24bf677859752cf2ddf3823e1d134b52a156deaffb4ba3630dc84868560405161075793929190612989565b60405180910390a15050505050565b600560019054906101000a900473ffffffffffffffffffffffffffffffffffffffff1673ffffffffffffffffffffffffffffffffffffffff163373ffffffffffffffffffffffffffffffffffffffff16146107f6576040517f08c379a00000000000000000000000000000000000000000000000000000000081526004016107ed9061279d565b60405180910390fd5b60006006600083815260200190815260200160002090508060040160009054906101000a900460ff1661085e576040517f08c379a00000000000000000000000000000000000000000000000000000000081526004016108559061281d565b60405180910390fd5b6000600660006009548152602001908152602001600020905060008260040160006101000a81548160ff021916908315150217905550816005015481600501819055506000826005018190555080600001546007600083600501548152602001908152602001600020819055506000600760006009548152602001908152602001600020819055506108fc6001600954611b0990919063ffffffff16565b6009819055507fa4b62d701729d2038b6683e9584f5ea4479ea94a225c6e81b838699093b9ca2060085460405161093391906128dd565b60405180910390a1505050565b600060016000838152602001908152602001600020600301549050919050565b606060008060006060610971611bae565b600660008881526020019081526020016000206040518060e001604052908160008201548152602001600182018054600181600116156101000203166002900480601f016020809104026020016040519081016040528092919081815260200182805460018160011615610100020316600290048015610a325780601f10610a0757610100808354040283529160200191610a32565b820191906000526020600020905b815481529060010190602001808311610a1557829003601f168201915b5050505050815260200160028201548152602001600382015481526020016004820160009054906101000a900460ff161515151581526020016005820154815260200160078201805480602002602001604051908101604052809291908181526020018280548015610ac357602002820191906000526020600020905b815481526020019060010190808311610aaf575b50505050508152505090506060816020015190506000815111610b1b576040517f08c379a0000000000000000000000000000000000000000000000000000000008152600401610b12906127fd565b60405180910390fd5b816020015196508160400151955081606001519450816080015193508160c001519250505091939590929450565b6006602052806000526040600020600091509050806000015490806001018054600181600116156101000203166002900480601f016020809104026020016040519081016040528092919081815260200182805460018160011615610100020316600290048015610bfb5780601f10610bd057610100808354040283529160200191610bfb565b820191906000526020600020905b815481529060010190602001808311610bde57829003601f168201915b5050505050908060020154908060030154908060040160009054906101000a900460ff16908060050154905086565b60608060006060806060600160008881526020019081526020016000206001018054600181600116156101000203166002900480601f016020809104026020016040519081016040528092919081815260200182805460018160011615610100020316600290048015610cde5780601f10610cb357610100808354040283529160200191610cde565b820191906000526020600020905b815481529060010190602001808311610cc157829003601f168201915b50505050509050600081511415610d2a576040517f08c379a0000000000000000000000000000000000000000000000000000000008152600401610d21906127dd565b60405180910390fd5b610d32611bed565b600160008981526020019081526020016000206040518060c0016040529081600082018054600181600116156101000203166002900480601f016020809104026020016040519081016040528092919081815260200182805460018160011615610100020316600290048015610de95780601f10610dbe57610100808354040283529160200191610de9565b820191906000526020600020905b815481529060010190602001808311610dcc57829003601f168201915b50505050508152602001600182018054600181600116156101000203166002900480601f016020809104026020016040519081016040528092919081815260200182805460018160011615610100020316600290048015610e8b5780601f10610e6057610100808354040283529160200191610e8b565b820191906000526020600020905b815481529060010190602001808311610e6e57829003601f168201915b50505050508152602001600282015481526020016003820154815260200160048201805480602002602001604051908101604052809291908181526020018280548015610ef757602002820191906000526020600020905b815481526020019060010190808311610ee3575b5050505050815260200160058201805480602002602001604051908101604052809291908181526020018280548015610f4f57602002820191906000526020600020905b815481526020019060010190808311610f3b575b5050505050815250509050806000015196508060200151955080606001519450806080015193508060a001519250505091939590929450565b600560009054906101000a900460ff1681565b60035481565b60095481565b6000600560019054906101000a900473ffffffffffffffffffffffffffffffffffffffff1673ffffffffffffffffffffffffffffffffffffffff163373ffffffffffffffffffffffffffffffffffffffff1614611039576040517f08c379a00000000000000000000000000000000000000000000000000000000081526004016110309061279d565b60405180910390fd5b816002600082815260200190815260200160002060009054906101000a900460ff16806110665750600081145b6110a5576040517f08c379a000000000000000000000000000000000000000000000000000000000815260040161109c906127bd565b60405180910390fd5b600560009054906101000a900460ff1615600560006101000a81548160ff0219169083151502179055507f460168ef1a21edd6e0179abc43d3d43630cd738d60e60cf485890096aeb34544600560009054906101000a900460ff168460405161110f9291906125cf565b60405180910390a1600560009054906101000a900460ff16915050919050565b6060806009546040519080825280602002602001820160405280156111635781602001602082028038833980820191505090505b50905060008090505b6009548110156111c2576007600061118e600184611ab490919063ffffffff16565b8152602001908152602001600020548282815181106111a957fe5b602002602001018181525050808060010191505061116c565b508091505090565b60076020528060005260406000206000915090505481565b60026020528060005260406000206000915054906101000a900460ff1681565b600560019054906101000a900473ffffffffffffffffffffffffffffffffffffffff1681565b6001602052806000526040600020600091509050806000018054600181600116156101000203166002900480601f0160208091040260200160405190810160405280929190818152602001828054600181600116156101000203166002900480156112d45780601f106112a9576101008083540402835291602001916112d4565b820191906000526020600020905b8154815290600101906020018083116112b757829003601f168201915b505050505090806001018054600181600116156101000203166002900480601f0160208091040260200160405190810160405280929190818152602001828054600181600116156101000203166002900480156113725780601f1061134757610100808354040283529160200191611372565b820191906000526020600020905b81548152906001019060200180831161135557829003601f168201915b5050505050908060020154908060030154905084565b60045481565b6000600560019054906101000a900473ffffffffffffffffffffffffffffffffffffffff1673ffffffffffffffffffffffffffffffffffffffff163373ffffffffffffffffffffffffffffffffffffffff1614611420576040517f08c379a00000000000000000000000000000000000000000000000000000000081526004016114179061279d565b60405180910390fd5b600560009054906101000a900460ff1615611470576040517f08c379a0000000000000000000000000000000000000000000000000000000008152600401611467906128bd565b60405180910390fd5b600080856040516114819190612560565b908152602001604051809103902054146114d0576040517f08c379a00000000000000000000000000000000000000000000000000000000081526004016114c79061285d565b60405180910390fd5b6114e66001600454611ab490919063ffffffff16565b600481905550600060016000600454815260200190815260200160002090508481600001908051906020019061151d929190611c23565b5083816001019080519060200190611536929190611c23565b508260026000600454815260200190815260200160002060006101000a81548160ff0219169083151502179055506004546000866040516115779190612560565b9081526020016040518091039020819055507f6b1da47e6cb6a4952c75fff4300f06caf20aa8269a4a398f315562926c5bed396004546040516115ba91906128dd565b60405180910390a16004549150509392505050565b600560019054906101000a900473ffffffffffffffffffffffffffffffffffffffff1673ffffffffffffffffffffffffffffffffffffffff163373ffffffffffffffffffffffffffffffffffffffff161461165f576040517f08c379a00000000000000000000000000000000000000000000000000000000081526004016116569061279d565b60405180910390fd5b60006006600084815260200190815260200160002090508060040160009054906101000a900460ff166116c7576040517f08c379a00000000000000000000000000000000000000000000000000000000081526004016116be9061273d565b60405180910390fd5b600081600201541161170e576040517f08c379a00000000000000000000000000000000000000000000000000000000081526004016117059061283d565b60405180910390fd5b806003015461171c83610940565b101561175d576040517f08c379a00000000000000000000000000000000000000000000000000000000081526004016117549061287d565b60405180910390fd5b80600601600083815260200190815260200160002060009054906101000a900460ff16156117c0576040517f08c379a00000000000000000000000000000000000000000000000000000000081526004016117b79061275d565b60405180910390fd5b6117d860018260020154611b0990919063ffffffff16565b8160020181905550600060016000848152602001908152602001600020905080600401849080600181540180825580915050600190039060005260206000200160009091909190915055600182600601600085815260200190815260200160002060006101000a81548160ff0219169083151502179055508160070183908060018154018082558091505060019003906000526020600020016000909190919091505561189682600301548260030154611b0990919063ffffffff16565b81600301819055507f82979ce06c1fcf7a090707d8fc7123bfa6b69ba161402b0d6c52e052bd97d04b84846040516118cf929190612960565b60405180910390a150505050565b6000818051602081018201805184825260208301602085012081835280955050505050506000915090505481565b6000600560019054906101000a900473ffffffffffffffffffffffffffffffffffffffff1673ffffffffffffffffffffffffffffffffffffffff163373ffffffffffffffffffffffffffffffffffffffff161461199d576040517f08c379a00000000000000000000000000000000000000000000000000000000081526004016119949061279d565b60405180910390fd5b6119b36001600854611ab490919063ffffffff16565b600881905550600060066000600854815260200190815260200160002090506008548160000181905550848160010190805190602001906119f5929190611c23565b5083816002018190555082816003018190555060018160040160006101000a81548160ff021916908315150217905550611a3b6001600954611ab490919063ffffffff16565b6009819055506008546007600060095481526020019081526020016000208190555060095481600501819055507f77ff2ef08febd9f3c5e2bd5b310fa7ce50bfa6627428012ffc5ff4fd2b989463600854604051611a9991906128dd565b60405180910390a16008549150509392505050565b60085481565b600080828401905083811015611aff576040517f08c379a0000000000000000000000000000000000000000000000000000000008152600401611af69061277d565b60405180910390fd5b8091505092915050565b6000611b4b83836040518060400160405280601e81526020017f536166654d6174683a207375627472616374696f6e206f766572666c6f770000815250611b53565b905092915050565b6000838311158290611b9b576040517f08c379a0000000000000000000000000000000000000000000000000000000008152600401611b9291906125f8565b60405180910390fd5b5060008385039050809150509392505050565b6040518060e001604052806000815260200160608152602001600081526020016000815260200160001515815260200160008152602001606081525090565b6040518060c001604052806060815260200160608152602001600081526020016000815260200160608152602001606081525090565b828054600181600116156101000203166002900490600052602060002090601f016020900481019282601f10611c6457805160ff1916838001178555611c92565b82800160010185558215611c92579182015b82811115611c91578251825591602001919060010190611c76565b5b509050611c9f9190611ca3565b5090565b611cc591905b80821115611cc1576000816000905550600101611ca9565b5090565b90565b600081359050611cd781612b4b565b92915050565b600082601f830112611cee57600080fd5b8135611d01611cfc826129ed565b6129c0565b91508082526020830160208301858383011115611d1d57600080fd5b611d28838284612af8565b50505092915050565b600082601f830112611d4257600080fd5b8135611d55611d5082612a19565b6129c0565b91508082526020830160208301858383011115611d7157600080fd5b611d7c838284612af8565b50505092915050565b600081359050611d9481612b62565b92915050565b600060208284031215611dac57600080fd5b600082013567ffffffffffffffff811115611dc657600080fd5b611dd284828501611cdd565b91505092915050565b600080600060608486031215611df057600080fd5b600084013567ffffffffffffffff811115611e0a57600080fd5b611e1686828701611d31565b935050602084013567ffffffffffffffff811115611e3357600080fd5b611e3f86828701611d31565b9250506040611e5086828701611cc8565b9150509250925092565b600080600060608486031215611e6f57600080fd5b600084013567ffffffffffffffff811115611e8957600080fd5b611e9586828701611d31565b9350506020611ea686828701611d85565b9250506040611eb786828701611d85565b9150509250925092565b600060208284031215611ed357600080fd5b6000611ee184828501611d85565b91505092915050565b60008060408385031215611efd57600080fd5b6000611f0b85828601611d85565b9250506020611f1c85828601611d85565b9150509250929050565b600080600060608486031215611f3b57600080fd5b6000611f4986828701611d85565b9350506020611f5a86828701611d85565b9250506040611f6b86828701611d85565b9150509250925092565b6000611f818383612542565b60208301905092915050565b611f9681612ab0565b82525050565b6000611fa782612a55565b611fb18185612a83565b9350611fbc83612a45565b8060005b83811015611fed578151611fd48882611f75565b9750611fdf83612a76565b925050600181019050611fc0565b5085935050505092915050565b61200381612ac2565b82525050565b600061201482612a6b565b61201e8185612a94565b935061202e818560208601612b07565b61203781612b3a565b840191505092915050565b600061204d82612a6b565b6120578185612aa5565b9350612067818560208601612b07565b80840191505092915050565b600061207e82612a60565b6120888185612a94565b9350612098818560208601612b07565b6120a181612b3a565b840191505092915050565b60006120b9601e83612a94565b91507f43616e6e6f7420707572636861736520696e616374697665206974656d2100006000830152602082019050919050565b60006120f9602583612a94565b91507f557365722068617320616c72656164792070757263686173656420746869732060008301527f6974656d210000000000000000000000000000000000000000000000000000006020830152604082019050919050565b600061215f601b83612a94565b91507f536166654d6174683a206164646974696f6e206f766572666c6f7700000000006000830152602082019050919050565b600061219f602a83612a94565b91507f457865637574696e672061646472657373206973206e6f74207468652043524f60008301527f4e206164647265737321000000000000000000000000000000000000000000006020830152604082019050919050565b6000612205602d83612a94565b91507f43616e6e6f7420657865637574653a2055736572206973206e6f74206120636c60008301527f75622045786563757469766521000000000000000000000000000000000000006020830152604082019050919050565b600061226b602b83612a94565b91507f43616e6e6f742070726f66696c65206163636f756e74207468617420646f657360008301527f206e6f74206578697374210000000000000000000000000000000000000000006020830152604082019050919050565b60006122d1602183612a94565b91507f43616e6e6f74207175657279206e6f6e6578697374656e74206974656d20494460008301527f21000000000000000000000000000000000000000000000000000000000000006020830152604082019050919050565b6000612337602883612a94565b91507f4974656d2068617320616c7265616479206265656e2064656c69737465642f2060008301527f65787069726564210000000000000000000000000000000000000000000000006020830152604082019050919050565b600061239d601183612a94565b91507f4974656d20697320736f6c64206f7574210000000000000000000000000000006000830152602082019050919050565b60006123dd601983612a94565b91507f5573657220697320616c726561647920656e726f6c6c656421000000000000006000830152602082019050919050565b600061241d603583612a94565b91507f557365722068617320696e73756666696369656e74204d55424320546f6b656e60008301527f2062616c616e636520746f2070757263686173652100000000000000000000006020830152604082019050919050565b6000612483602183612a94565b91507f43616e6e6f74206d696e7420746f20756e75736564207575696420696e64657860008301527f21000000000000000000000000000000000000000000000000000000000000006020830152604082019050919050565b60006124e9603783612a94565b91507f436f6e7472616374206973206e6f74206163746976653a20746865206369726360008301527f75697420627265616b657220697320666c6970706564210000000000000000006020830152604082019050919050565b61254b81612aee565b82525050565b61255a81612aee565b82525050565b600061256c8284612042565b915081905092915050565b600060208201905061258c6000830184611f8d565b92915050565b600060208201905081810360008301526125ac8184611f9c565b905092915050565b60006020820190506125c96000830184611ffa565b92915050565b60006040820190506125e46000830185611ffa565b6125f16020830184612551565b9392505050565b600060208201905081810360008301526126128184612009565b905092915050565b600060a08201905081810360008301526126348188612009565b905081810360208301526126488187612009565b90506126576040830186612551565b81810360608301526126698185611f9c565b9050818103608083015261267d8184611f9c565b90509695505050505050565b600060a08201905081810360008301526126a38188612009565b90506126b26020830187612551565b6126bf6040830186612551565b6126cc6060830185611ffa565b81810360808301526126de8184611f9c565b90509695505050505050565b600060808201905081810360008301526127048187612073565b905081810360208301526127188186612073565b90506127276040830185612551565b6127346060830184612551565b95945050505050565b60006020820190508181036000830152612756816120ac565b9050919050565b60006020820190508181036000830152612776816120ec565b9050919050565b6000602082019050818103600083015261279681612152565b9050919050565b600060208201905081810360008301526127b681612192565b9050919050565b600060208201905081810360008301526127d6816121f8565b9050919050565b600060208201905081810360008301526127f68161225e565b9050919050565b60006020820190508181036000830152612816816122c4565b9050919050565b600060208201905081810360008301526128368161232a565b9050919050565b6000602082019050818103600083015261285681612390565b9050919050565b60006020820190508181036000830152612876816123d0565b9050919050565b6000602082019050818103600083015261289681612410565b9050919050565b600060208201905081810360008301526128b681612476565b9050919050565b600060208201905081810360008301526128d6816124dc565b9050919050565b60006020820190506128f26000830184612551565b92915050565b600060c08201905061290d6000830189612551565b818103602083015261291f8188612073565b905061292e6040830187612551565b61293b6060830186612551565b6129486080830185611ffa565b61295560a0830184612551565b979650505050505050565b60006040820190506129756000830185612551565b6129826020830184612551565b9392505050565b600060608201905061299e6000830186612551565b6129ab6020830185612551565b6129b86040830184612551565b949350505050565b6000604051905081810181811067ffffffffffffffff821117156129e357600080fd5b8060405250919050565b600067ffffffffffffffff821115612a0457600080fd5b601f19601f8301169050602081019050919050565b600067ffffffffffffffff821115612a3057600080fd5b601f19601f8301169050602081019050919050565b6000819050602082019050919050565b600081519050919050565b600081519050919050565b600081519050919050565b6000602082019050919050565b600082825260208201905092915050565b600082825260208201905092915050565b600081905092915050565b6000612abb82612ace565b9050919050565b60008115159050919050565b600073ffffffffffffffffffffffffffffffffffffffff82169050919050565b6000819050919050565b82818337600083830152505050565b60005b83811015612b25578082015181840152602081019050612b0a565b83811115612b34576000848401525b50505050565b6000601f19601f8301169050919050565b612b5481612ac2565b8114612b5f57600080fd5b50565b612b6b81612aee565b8114612b7657600080fd5b5056fea2646970667358221220f93fa7adbd7322e0699f6f4da5aa1301dc140453df0019dfd9123eec0210d23064736f6c63430006010033",
  "source": "pragma solidity >= 0.4.0 < 0.7.0;\npragma experimental ABIEncoderV2;\n\nimport './MUBCCore.sol';\nimport './IMUBCItems.sol';\n\ncontract MUBCItems is MUBCCore, IMUBCItems {\n\n    function listItem(\n        string memory _description,\n        uint _quantity,\n        uint _cost\n        ) public override onlyCron() returns (uint _itemID) {\n\n        itemSerial = itemSerial.add(1);\n        Item storage item = itemRegistry[itemSerial];\n        item.itemID = itemSerial;\n        item.description = _description;\n        item.quantity = _quantity;\n        item.cost = _cost;\n        item.active = true;\n        activeSerial = activeSerial.add(1);\n        activeItems[activeSerial] = itemSerial;\n        item.activeIndex = activeSerial;\n        emit ItemListed(itemSerial);\n        return itemSerial;\n    }\n\n    function delistItem(uint _itemID) public override onlyCron() {\n        Item storage delistedItem = itemRegistry[_itemID];\n        require(delistedItem.active, \"Item has already been delisted/ expired!\");\n        Item storage shiftedItem = itemRegistry[activeSerial];\n        delistedItem.active = false;\n        shiftedItem.activeIndex = delistedItem.activeIndex;\n        delistedItem.activeIndex = 0;\n        activeItems[shiftedItem.activeIndex] = shiftedItem.itemID;\n        activeItems[activeSerial] = 0;\n        activeSerial = activeSerial.sub(1);\n        emit ItemDelisted(itemSerial);\n    }\n\n    function purchaseItem(uint _itemID, uint _as) public override onlyCron() {\n        Item storage item = itemRegistry[_itemID];\n        require(item.active, \"Cannot purchase inactive item!\");\n        require(item.quantity > 0, \"Item is sold out!\");\n        require(getBalance(_as) >= item.cost, \"User has insufficient MUBC Token balance to purchase!\");\n        require(!item.purchases[_as], \"User has already purchased this item!\");\n        item.quantity = item.quantity.sub(1);\n        User storage user = userRegistry[_as];\n        user.purchases.push(_itemID);\n        item.purchases[_as] = true;\n        item.purchasers.push(_as);\n        user.balance = user.balance.sub(item.cost);\n        emit ItemPurchased(_itemID, _as);\n    }\n\n    function getActiveItems() public override view returns (uint[] memory _itemIDs) {\n        uint[] memory arr = new uint[](activeSerial);\n        for (uint i = 0; i < activeSerial; i++)\n            arr[i] = activeItems[i.add(1)];\n        return arr;\n    }\n\n    function itemProfile(uint _id) public override view returns (\n        string memory _description,\n        uint _quantity,\n        uint _cost,\n        bool _active,\n        uint[] memory _purchasers\n        ) {\n\n        Item memory item = itemRegistry[_id];\n        bytes memory str = bytes(item.description);\n        require(str.length > 0, \"Cannot query nonexistent item ID!\");\n        _description = item.description;\n        _quantity = item.quantity;\n        _cost = item.cost;\n        _active = item.active;\n        _purchasers = item.purchasers;\n    }\n}",
  "sourcePath": "/home/gilcrejp/incentive-contracts/contracts/MUBCItems.sol",
  "compiler": {
    "name": "solc",
    "version": "0.6.1+commit.e6f7d5a4.Emscripten.clang"
  },
  "schemaVersion": "3.0.23",
  "updatedAt": "2020-05-02T19:53:58.480Z",
  "networkType": "ethereum",
  "devdoc": {
    "methods": {}
  },
  "userdoc": {
    "methods": {}
  }
}