{
  "contractName": "MUBCCore",
  "abi": [
    {
      "inputs": [],
      "stateMutability": "nonpayable",
      "type": "constructor"
    },
    {
      "anonymous": false,
      "inputs": [
        {
          "indexed": false,
          "internalType": "bool",
          "name": "state",
          "type": "bool"
        },
        {
          "indexed": false,
          "internalType": "uint256",
          "name": "by",
          "type": "uint256"
        }
      ],
      "name": "BreakerFlipped",
      "type": "event"
    },
    {
      "anonymous": false,
      "inputs": [
        {
          "indexed": false,
          "internalType": "uint256",
          "name": "value",
          "type": "uint256"
        },
        {
          "indexed": false,
          "internalType": "uint256",
          "name": "uuid",
          "type": "uint256"
        },
        {
          "indexed": false,
          "internalType": "uint256",
          "name": "by",
          "type": "uint256"
        }
      ],
      "name": "IncentiveMinted",
      "type": "event"
    },
    {
      "anonymous": false,
      "inputs": [
        {
          "indexed": false,
          "internalType": "uint256",
          "name": "uuid",
          "type": "uint256"
        }
      ],
      "name": "UserRegistered",
      "type": "event"
    },
    {
      "inputs": [],
      "name": "circuitBroken",
      "outputs": [
        {
          "internalType": "bool",
          "name": "",
          "type": "bool"
        }
      ],
      "stateMutability": "view",
      "type": "function"
    },
    {
      "inputs": [],
      "name": "cron",
      "outputs": [
        {
          "internalType": "address",
          "name": "",
          "type": "address"
        }
      ],
      "stateMutability": "view",
      "type": "function"
    },
    {
      "inputs": [
        {
          "internalType": "uint256",
          "name": "",
          "type": "uint256"
        }
      ],
      "name": "executive",
      "outputs": [
        {
          "internalType": "bool",
          "name": "",
          "type": "bool"
        }
      ],
      "stateMutability": "view",
      "type": "function"
    },
    {
      "inputs": [],
      "name": "tokenSupply",
      "outputs": [
        {
          "internalType": "uint256",
          "name": "",
          "type": "uint256"
        }
      ],
      "stateMutability": "view",
      "type": "function"
    },
    {
      "inputs": [
        {
          "internalType": "uint256",
          "name": "",
          "type": "uint256"
        }
      ],
      "name": "userRegistry",
      "outputs": [
        {
          "internalType": "string",
          "name": "uniqueID",
          "type": "string"
        },
        {
          "internalType": "string",
          "name": "name",
          "type": "string"
        },
        {
          "internalType": "uint256",
          "name": "uuid",
          "type": "uint256"
        },
        {
          "internalType": "uint256",
          "name": "balance",
          "type": "uint256"
        }
      ],
      "stateMutability": "view",
      "type": "function"
    },
    {
      "inputs": [
        {
          "internalType": "string",
          "name": "",
          "type": "string"
        }
      ],
      "name": "uuid",
      "outputs": [
        {
          "internalType": "uint256",
          "name": "",
          "type": "uint256"
        }
      ],
      "stateMutability": "view",
      "type": "function"
    },
    {
      "inputs": [],
      "name": "uuidSerial",
      "outputs": [
        {
          "internalType": "uint256",
          "name": "",
          "type": "uint256"
        }
      ],
      "stateMutability": "view",
      "type": "function"
    },
    {
      "inputs": [
        {
          "internalType": "string",
          "name": "_uniqueID",
          "type": "string"
        },
        {
          "internalType": "string",
          "name": "_name",
          "type": "string"
        },
        {
          "internalType": "bool",
          "name": "_executive",
          "type": "bool"
        }
      ],
      "name": "register",
      "outputs": [
        {
          "internalType": "uint256",
          "name": "_uuid",
          "type": "uint256"
        }
      ],
      "stateMutability": "nonpayable",
      "type": "function"
    },
    {
      "inputs": [
        {
          "internalType": "uint256",
          "name": "_uuid",
          "type": "uint256"
        },
        {
          "internalType": "uint256",
          "name": "_value",
          "type": "uint256"
        },
        {
          "internalType": "uint256",
          "name": "_as",
          "type": "uint256"
        }
      ],
      "name": "mint",
      "outputs": [],
      "stateMutability": "nonpayable",
      "type": "function"
    },
    {
      "inputs": [
        {
          "internalType": "uint256",
          "name": "_as",
          "type": "uint256"
        }
      ],
      "name": "flipBreaker",
      "outputs": [
        {
          "internalType": "bool",
          "name": "_state",
          "type": "bool"
        }
      ],
      "stateMutability": "nonpayable",
      "type": "function"
    },
    {
      "inputs": [
        {
          "internalType": "uint256",
          "name": "_uuid",
          "type": "uint256"
        }
      ],
      "name": "getBalance",
      "outputs": [
        {
          "internalType": "uint256",
          "name": "_balance",
          "type": "uint256"
        }
      ],
      "stateMutability": "view",
      "type": "function"
    },
    {
      "inputs": [
        {
          "internalType": "uint256",
          "name": "_uuid",
          "type": "uint256"
        }
      ],
      "name": "profile",
      "outputs": [
        {
          "internalType": "string",
          "name": "_uniqueID",
          "type": "string"
        },
        {
          "internalType": "string",
          "name": "_name",
          "type": "string"
        },
        {
          "internalType": "uint256",
          "name": "_balance",
          "type": "uint256"
        },
        {
          "internalType": "uint256[]",
          "name": "_purchases",
          "type": "uint256[]"
        },
        {
          "internalType": "uint256[]",
          "name": "_awards",
          "type": "uint256[]"
        }
      ],
      "stateMutability": "view",
      "type": "function"
    }
  ],
  "bytecode": "0x608060405234801561001057600080fd5b5033600560016101000a81548173ffffffffffffffffffffffffffffffffffffffff021916908373ffffffffffffffffffffffffffffffffffffffff160217905550611a28806100616000396000f3fe608060405234801561001057600080fd5b50600436106100b45760003560e01c80639ca78592116100715780639ca78592146101a5578063b90dc8ff146101d5578063bddaef9c146101f3578063cb78a5ad14610226578063d7fc1b9b14610244578063e8f4593914610274576100b4565b806302acc94b146100b95780631e010439146100d557806372cd2b1a1461010557806376280a62146101395780637824407f146101575780638bade2a114610175575b600080fd5b6100d360048036036100ce91908101906111ad565b6102a4565b005b6100ef60048036036100ea9190810190611184565b610588565b6040516100fc91906117e7565b60405180910390f35b61011f600480360361011a9190810190611184565b6105a8565b604051610130959493929190611645565b60405180910390f35b610141610906565b60405161014e9190611601565b60405180910390f35b61015f610919565b60405161016c91906117e7565b60405180910390f35b61018f600480360361018a9190810190611184565b61091f565b60405161019c9190611601565b60405180910390f35b6101bf60048036036101ba9190810190611184565b610aa7565b6040516101cc9190611601565b60405180910390f35b6101dd610ac7565b6040516101ea91906115e6565b60405180910390f35b61020d60048036036102089190810190611184565b610aed565b60405161021d94939291906116b4565b60405180910390f35b61022e610c4d565b60405161023b91906117e7565b60405180910390f35b61025e60048036036102599190810190611105565b610c53565b60405161026b91906117e7565b60405180910390f35b61028e600480360361028991908101906110c4565b610e94565b60405161029b91906117e7565b60405180910390f35b600560019054906101000a900473ffffffffffffffffffffffffffffffffffffffff1673ffffffffffffffffffffffffffffffffffffffff163373ffffffffffffffffffffffffffffffffffffffff1614610334576040517f08c379a000000000000000000000000000000000000000000000000000000000815260040161032b90611727565b60405180910390fd5b600560009054906101000a900460ff1615610384576040517f08c379a000000000000000000000000000000000000000000000000000000000815260040161037b906117c7565b60405180910390fd5b806002600082815260200190815260200160002060009054906101000a900460ff16806103b15750600081145b6103f0576040517f08c379a00000000000000000000000000000000000000000000000000000000081526004016103e790611747565b60405180910390fd5b6060600160008681526020019081526020016000206001018054600181600116156101000203166002900480601f01602080910402602001604051908101604052809291908181526020018280546001816001161561010002031660029004801561049c5780601f106104715761010080835404028352916020019161049c565b820191906000526020600020905b81548152906001019060200180831161047f57829003601f168201915b505050505090506000815114156104e8576040517f08c379a00000000000000000000000000000000000000000000000000000000081526004016104df906117a7565b60405180910390fd5b610511846001600088815260200190815260200160002060030154610ec290919063ffffffff16565b600160008781526020019081526020016000206003018190555061054084600354610ec290919063ffffffff16565b6003819055507f4f14f3010e17c24bf677859752cf2ddf3823e1d134b52a156deaffb4ba3630dc84868560405161057993929190611802565b60405180910390a15050505050565b600060016000838152602001908152602001600020600301549050919050565b60608060006060806060600160008881526020019081526020016000206001018054600181600116156101000203166002900480601f01602080910402602001604051908101604052809291908181526020018280546001816001161561010002031660029004801561065c5780601f106106315761010080835404028352916020019161065c565b820191906000526020600020905b81548152906001019060200180831161063f57829003601f168201915b505050505090506000815114156106a8576040517f08c379a000000000000000000000000000000000000000000000000000000000815260040161069f90611767565b60405180910390fd5b6106b0610f17565b600160008981526020019081526020016000206040518060c0016040529081600082018054600181600116156101000203166002900480601f0160208091040260200160405190810160405280929190818152602001828054600181600116156101000203166002900480156107675780601f1061073c57610100808354040283529160200191610767565b820191906000526020600020905b81548152906001019060200180831161074a57829003601f168201915b50505050508152602001600182018054600181600116156101000203166002900480601f0160208091040260200160405190810160405280929190818152602001828054600181600116156101000203166002900480156108095780601f106107de57610100808354040283529160200191610809565b820191906000526020600020905b8154815290600101906020018083116107ec57829003601f168201915b5050505050815260200160028201548152602001600382015481526020016004820180548060200260200160405190810160405280929190818152602001828054801561087557602002820191906000526020600020905b815481526020019060010190808311610861575b50505050508152602001600582018054806020026020016040519081016040528092919081815260200182805480156108cd57602002820191906000526020600020905b8154815260200190600101908083116108b9575b5050505050815250509050806000015196508060200151955080606001519450806080015193508060a001519250505091939590929450565b600560009054906101000a900460ff1681565b60035481565b6000600560019054906101000a900473ffffffffffffffffffffffffffffffffffffffff1673ffffffffffffffffffffffffffffffffffffffff163373ffffffffffffffffffffffffffffffffffffffff16146109b1576040517f08c379a00000000000000000000000000000000000000000000000000000000081526004016109a890611727565b60405180910390fd5b816002600082815260200190815260200160002060009054906101000a900460ff16806109de5750600081145b610a1d576040517f08c379a0000000000000000000000000000000000000000000000000000000008152600401610a1490611747565b60405180910390fd5b600560009054906101000a900460ff1615600560006101000a81548160ff0219169083151502179055507f460168ef1a21edd6e0179abc43d3d43630cd738d60e60cf485890096aeb34544600560009054906101000a900460ff1684604051610a8792919061161c565b60405180910390a1600560009054906101000a900460ff16915050919050565b60026020528060005260406000206000915054906101000a900460ff1681565b600560019054906101000a900473ffffffffffffffffffffffffffffffffffffffff1681565b6001602052806000526040600020600091509050806000018054600181600116156101000203166002900480601f016020809104026020016040519081016040528092919081815260200182805460018160011615610100020316600290048015610b995780601f10610b6e57610100808354040283529160200191610b99565b820191906000526020600020905b815481529060010190602001808311610b7c57829003601f168201915b505050505090806001018054600181600116156101000203166002900480601f016020809104026020016040519081016040528092919081815260200182805460018160011615610100020316600290048015610c375780601f10610c0c57610100808354040283529160200191610c37565b820191906000526020600020905b815481529060010190602001808311610c1a57829003601f168201915b5050505050908060020154908060030154905084565b60045481565b6000600560019054906101000a900473ffffffffffffffffffffffffffffffffffffffff1673ffffffffffffffffffffffffffffffffffffffff163373ffffffffffffffffffffffffffffffffffffffff1614610ce5576040517f08c379a0000000000000000000000000000000000000000000000000000000008152600401610cdc90611727565b60405180910390fd5b600560009054906101000a900460ff1615610d35576040517f08c379a0000000000000000000000000000000000000000000000000000000008152600401610d2c906117c7565b60405180910390fd5b60008085604051610d4691906115cf565b90815260200160405180910390205414610d95576040517f08c379a0000000000000000000000000000000000000000000000000000000008152600401610d8c90611787565b60405180910390fd5b610dab6001600454610ec290919063ffffffff16565b6004819055506000600160006004548152602001908152602001600020905084816000019080519060200190610de2929190610f4d565b5083816001019080519060200190610dfb929190610f4d565b508260026000600454815260200190815260200160002060006101000a81548160ff021916908315150217905550600454600086604051610e3c91906115cf565b9081526020016040518091039020819055507f6b1da47e6cb6a4952c75fff4300f06caf20aa8269a4a398f315562926c5bed39600454604051610e7f91906117e7565b60405180910390a16004549150509392505050565b6000818051602081018201805184825260208301602085012081835280955050505050506000915090505481565b600080828401905083811015610f0d576040517f08c379a0000000000000000000000000000000000000000000000000000000008152600401610f0490611707565b60405180910390fd5b8091505092915050565b6040518060c001604052806060815260200160608152602001600081526020016000815260200160608152602001606081525090565b828054600181600116156101000203166002900490600052602060002090601f016020900481019282601f10610f8e57805160ff1916838001178555610fbc565b82800160010185558215610fbc579182015b82811115610fbb578251825591602001919060010190610fa0565b5b509050610fc99190610fcd565b5090565b610fef91905b80821115610feb576000816000905550600101610fd3565b5090565b90565b600081359050611001816119c4565b92915050565b600082601f83011261101857600080fd5b813561102b61102682611866565b611839565b9150808252602083016020830185838301111561104757600080fd5b611052838284611971565b50505092915050565b600082601f83011261106c57600080fd5b813561107f61107a82611892565b611839565b9150808252602083016020830185838301111561109b57600080fd5b6110a6838284611971565b50505092915050565b6000813590506110be816119db565b92915050565b6000602082840312156110d657600080fd5b600082013567ffffffffffffffff8111156110f057600080fd5b6110fc84828501611007565b91505092915050565b60008060006060848603121561111a57600080fd5b600084013567ffffffffffffffff81111561113457600080fd5b6111408682870161105b565b935050602084013567ffffffffffffffff81111561115d57600080fd5b6111698682870161105b565b925050604061117a86828701610ff2565b9150509250925092565b60006020828403121561119657600080fd5b60006111a4848285016110af565b91505092915050565b6000806000606084860312156111c257600080fd5b60006111d0868287016110af565b93505060206111e1868287016110af565b92505060406111f2868287016110af565b9150509250925092565b600061120883836115b1565b60208301905092915050565b61121d81611929565b82525050565b600061122e826118ce565b61123881856118fc565b9350611243836118be565b8060005b8381101561127457815161125b88826111fc565b9750611266836118ef565b925050600181019050611247565b5085935050505092915050565b61128a8161193b565b82525050565b600061129b826118e4565b6112a5818561190d565b93506112b5818560208601611980565b6112be816119b3565b840191505092915050565b60006112d4826118e4565b6112de818561191e565b93506112ee818560208601611980565b80840191505092915050565b6000611305826118d9565b61130f818561190d565b935061131f818560208601611980565b611328816119b3565b840191505092915050565b6000611340601b8361190d565b91507f536166654d6174683a206164646974696f6e206f766572666c6f7700000000006000830152602082019050919050565b6000611380602a8361190d565b91507f457865637574696e672061646472657373206973206e6f74207468652043524f60008301527f4e206164647265737321000000000000000000000000000000000000000000006020830152604082019050919050565b60006113e6602d8361190d565b91507f43616e6e6f7420657865637574653a2055736572206973206e6f74206120636c60008301527f75622045786563757469766521000000000000000000000000000000000000006020830152604082019050919050565b600061144c602b8361190d565b91507f43616e6e6f742070726f66696c65206163636f756e74207468617420646f657360008301527f206e6f74206578697374210000000000000000000000000000000000000000006020830152604082019050919050565b60006114b260198361190d565b91507f5573657220697320616c726561647920656e726f6c6c656421000000000000006000830152602082019050919050565b60006114f260218361190d565b91507f43616e6e6f74206d696e7420746f20756e75736564207575696420696e64657860008301527f21000000000000000000000000000000000000000000000000000000000000006020830152604082019050919050565b600061155860378361190d565b91507f436f6e7472616374206973206e6f74206163746976653a20746865206369726360008301527f75697420627265616b657220697320666c6970706564210000000000000000006020830152604082019050919050565b6115ba81611967565b82525050565b6115c981611967565b82525050565b60006115db82846112c9565b915081905092915050565b60006020820190506115fb6000830184611214565b92915050565b60006020820190506116166000830184611281565b92915050565b60006040820190506116316000830185611281565b61163e60208301846115c0565b9392505050565b600060a082019050818103600083015261165f8188611290565b905081810360208301526116738187611290565b905061168260408301866115c0565b81810360608301526116948185611223565b905081810360808301526116a88184611223565b90509695505050505050565b600060808201905081810360008301526116ce81876112fa565b905081810360208301526116e281866112fa565b90506116f160408301856115c0565b6116fe60608301846115c0565b95945050505050565b6000602082019050818103600083015261172081611333565b9050919050565b6000602082019050818103600083015261174081611373565b9050919050565b60006020820190508181036000830152611760816113d9565b9050919050565b600060208201905081810360008301526117808161143f565b9050919050565b600060208201905081810360008301526117a0816114a5565b9050919050565b600060208201905081810360008301526117c0816114e5565b9050919050565b600060208201905081810360008301526117e08161154b565b9050919050565b60006020820190506117fc60008301846115c0565b92915050565b600060608201905061181760008301866115c0565b61182460208301856115c0565b61183160408301846115c0565b949350505050565b6000604051905081810181811067ffffffffffffffff8211171561185c57600080fd5b8060405250919050565b600067ffffffffffffffff82111561187d57600080fd5b601f19601f8301169050602081019050919050565b600067ffffffffffffffff8211156118a957600080fd5b601f19601f8301169050602081019050919050565b6000819050602082019050919050565b600081519050919050565b600081519050919050565b600081519050919050565b6000602082019050919050565b600082825260208201905092915050565b600082825260208201905092915050565b600081905092915050565b600061193482611947565b9050919050565b60008115159050919050565b600073ffffffffffffffffffffffffffffffffffffffff82169050919050565b6000819050919050565b82818337600083830152505050565b60005b8381101561199e578082015181840152602081019050611983565b838111156119ad576000848401525b50505050565b6000601f19601f8301169050919050565b6119cd8161193b565b81146119d857600080fd5b50565b6119e481611967565b81146119ef57600080fd5b5056fea26469706673582212203e4292ed4bfd68134866a4c36d3748fd202ca0b096fc2e0599fcec1ca9e3b1d064736f6c63430006010033",
  "source": "pragma solidity >=0.4.0 < 0.7.0;\npragma experimental ABIEncoderV2;\n\nimport \"./IMUBCCore.sol\";\n\ncontract MUBCCore is IMUBCCore {\n\n    constructor() public {\n        cron = msg.sender;\n    }\n\n    function register(string memory _uniqueID, string memory _name, bool _executive)\n        public override onlyCron() circuitBreaker() returns (uint _uuid) {\n\n        require(uuid[_uniqueID] == 0, \"User is already enrolled!\");\n        uuidSerial = uuidSerial.add(1);\n        User storage user = userRegistry[uuidSerial];\n        user.uniqueID = _uniqueID;\n        user.name = _name;\n        executive[uuidSerial] = _executive;\n        uuid[_uniqueID] = uuidSerial;\n        emit UserRegistered(uuidSerial);\n        return uuidSerial;\n    }\n\n    function mint(uint _uuid, uint _value, uint _as) public override\n        onlyCron() circuitBreaker() onlyExecutive(_as) {\n\n        bytes memory str = bytes(userRegistry[_uuid].name);\n        require(str.length != 0, \"Cannot mint to unused uuid index!\");\n        userRegistry[_uuid].balance = userRegistry[_uuid].balance.add(_value);\n        tokenSupply = tokenSupply.add(_value);\n        emit IncentiveMinted(_value, _uuid, _as);\n    }\n\n    function flipBreaker(uint _as) public override\n        onlyCron() onlyExecutive(_as) returns (bool _state) {\n        circuitBroken = !circuitBroken;\n        emit BreakerFlipped(circuitBroken, _as);\n        _state = circuitBroken;\n    }\n\n    function getBalance(uint _uuid) public override view returns (uint _balance) {\n        return userRegistry[_uuid].balance;\n    }\n\n    function profile(uint _uuid) public override view returns (\n        string memory _uniqueID,\n        string memory _name,\n        uint _balance,\n        uint[] memory _purchases,\n        uint[] memory _awards\n        ) {\n            \n        bytes memory str = bytes(userRegistry[_uuid].name);\n        require(str.length != 0, \"Cannot profile account that does not exist!\");\n        User memory user = userRegistry[_uuid];\n        _uniqueID = user.uniqueID;\n        _name = user.name;\n        _balance = user.balance;\n        _purchases = user.purchases;\n        _awards = user.awards;\n    }\n\n}",
  "sourcePath": "/Users/ianbrighton/Documents/Blockchain/GSN/incentive-contracts/contracts/MUBCCore.sol",
  "compiler": {
    "name": "solc",
    "version": "0.6.1+commit.e6f7d5a4.Emscripten.clang"
  },
  "schemaVersion": "3.0.23",
  "updatedAt": "2020-11-18T19:59:59.712Z",
  "devdoc": {
    "methods": {}
  },
  "userdoc": {
    "methods": {}
  }
}